:100000000C9435000C945D000C945D000C945D0024
:100010000C945D000C945D000C945D000C945D00EC
:100020000C945D000C945D000C945D000C945D00DC
:100030000C945D000C945D000C945D000C945D00CC
:100040000C94BD010C945D000C942D020C940702DD
:100050000C945D000C945D000C945D000C945D00AC
:100060000C945D000C945D001F0311241FBECFEFA4
:10007000D8E0DEBFCDBF11E0A0E0B1E0ECEEF6E0ED
:1000800002C005900D92A233B107D9F721E0A2E397
:10009000B1E001C01D92A83DB207E1F710E0C5E351
:1000A000D0E004C02197FE010E946E03C433D10743
:1000B000C9F70E945F020C9474030C940000AF9285
:1000C000BF92CF92DF92EF92FF920F931F93CF9345
:1000D000DF936C017B018B01040F151FEB015E01A7
:1000E000AE18BF08C017D10759F06991D601ED913C
:1000F000FC910190F081E02DC6010995892B79F7DB
:10010000C501DF91CF911F910F91FF90EF90DF908C
:10011000CF90BF90AF900895FC01538D448D252F53
:1001200030E0842F90E0821B930B541710F0CF9691
:10013000089501970895FC01918D828D981761F0C3
:10014000A28DAE0FBF2FB11D5D968C91928D9F5FDA
:100150009F73928F90E008958FEF9FEF0895FC01B9
:10016000918D828D981731F0828DE80FF11D858D6C
:1001700090E008958FEF9FEF0895FC01918D228DFF
:10018000892F90E0805C9F4F821B91098F73992784
:1001900008958BE391E00E94BD0021E0892B09F4D2
:1001A00020E0822F089580E090E0892B29F00E94C2
:1001B000C90081110C9400000895FC01A48DA80FC2
:1001C000B92FB11DA35ABF4F2C91848D90E0019699
:1001D0008F739927848FA689B7892C93A089B189B9
:1001E0008C91837080648C93938D848D981306C05A
:1001F0000288F389E02D80818F7D80830895EF92BE
:10020000FF920F931F93CF93DF93EC0181E0888FD0
:100210009B8D8C8D98131AC0E889F989808185FFA0
:1002200015C09FB7F894EE89FF896083E889F98942
:1002300080818370806480839FBF81E090E0DF9144
:10024000CF911F910F91FF90EF900895F62E0B8D97
:1002500010E00F5F1F4F0F731127E02E8C8D8E1152
:100260000CC00FB607FCFACFE889F989808185FFB9
:10027000F5CFCE010E94DD00F1CFEB8DEC0FFD2F0D
:10028000F11DE35AFF4FF0829FB7F8940B8FEA8974
:10029000FB8980818062CFCFCF93DF93EC01888D83
:1002A0008823B9F0AA89BB89E889F9898C9185FDF1
:1002B00003C0808186FD0DC00FB607FCF7CF8C917F
:1002C00085FFF2CF808185FFEDCFCE010E94DD005A
:1002D000E9CFDF91CF910895FC0101900020E9F76B
:1002E0003197AF01481B590BBC018BE391E00C9493
:1002F0005F008F929F92AF92BF920F931F93CF9305
:10030000DF93CDB7DEB7A1970FB6F894DEBF0FBE6F
:10031000CDBF19A2423008F44AE08E010F5D1F4F95
:10032000842E912CB12CA12CA50194010E944C0388
:10033000E62FB901CA01EA30F4F4E05DD801EE938A
:100340008D01232B242B252B79F790E080E010974B
:1003500019F0CD010E946C01A1960FB6F894DEBF92
:100360000FBECDBFDF91CF911F910F91BF90AF9086
:100370009F908F900895E95CE1CF1F920F920FB686
:100380000F9211242F933F938F939F93AF93BF931B
:100390008091370190913801A0913901B0913A01D3
:1003A0003091360123E0230F2D3758F50196A11D1A
:1003B000B11D209336018093370190933801A093AB
:1003C0003901B0933A018091320190913301A091AB
:1003D0003401B09135010196A11DB11D8093320108
:1003E00090933301A0933401B0933501BF91AF9145
:1003F0009F918F913F912F910F900FBE0F901F9063
:10040000189526E8230F0296A11DB11DD2CF1F9289
:100410000F920FB60F9211242F933F934F935F9338
:100420006F937F938F939F93AF93BF93EF93FF93BC
:100430008BE391E00E94DD00FF91EF91BF91AF91BE
:100440009F918F917F916F915F914F913F912F91EC
:100450000F900FBE0F901F9018951F920F920FB61E
:100460000F9211242F938F939F93EF93FF93E0911B
:100470004B01F0914C018081E0915101F0915201CA
:1004800082FD1BC09081809154018F5F8F732091FA
:100490005501821741F0E0915401F0E0E55CFE4F18
:1004A000958F80935401FF91EF919F918F912F91A0
:1004B0000F900FBE0F901F9018958081F4CF789405
:1004C00084B5826084BD84B5816084BD85B5826059
:1004D00085BD85B5816085BD80916E00816080930A
:1004E0006E00109281008091810082608093810073
:1004F0008091810081608093810080918000816083
:10050000809380008091B10084608093B1008091DD
:10051000B00081608093B00080917A008460809305
:100520007A0080917A00826080937A0080917A00CC
:10053000816080937A0080917A00806880937A004D
:100540001092C100E0914B01F0914C0182E0808358
:10055000E0914701F09148011082E0914901F0914A
:100560004A018FEC808310925301E0914F01F0918A
:10057000500186E08083E0914D01F0914E01808131
:1005800080618083E0914D01F0914E01808188600F
:100590008083E0914D01F0914E01808180688083DD
:1005A000E0914D01F0914E0180818F7D808382E149
:1005B00091E00E946C0186E291E00E946C01C12CE6
:1005C000D12C7601CC2D89E291E00E946C014AE0A9
:1005D000C701B6010E9479018CE291E00E946C0192
:1005E000B601C23068F021E030E050E040E082E047
:1005F000BA01620F731F8F5FA9019B01C817C0F773
:1006000090E080E04AE00E94790186E291E00E9459
:100610006C018FEFC81AD80AE80AF80A84E1C816F4
:10062000D104E104F10471F6C0E0D0E02097F1F3C9
:100630000E94C9008823D1F30E940000F7CFEBE3AA
:10064000F1E01382128288EE93E0A0E0B0E08483B0
:100650009583A683B78384E091E09183808385ECC2
:1006600090E09587848784EC90E09787868780EC7C
:1006700090E0918B808B81EC90E0938B828B82EC6D
:1006800090E0958B848B86EC90E0978B868B118E17
:10069000128E138E148E0895A1E21A2EAA1BBB1B74
:1006A000FD010DC0AA1FBB1FEE1FFF1FA217B3073E
:1006B000E407F50720F0A21BB30BE40BF50B661F54
:1006C000771F881F991F1A9469F760957095809518
:1006D00090959B01AC01BD01CF010895EE0FFF1F66
:0C06E0000590F491E02D0994F894FFCFF0
:1006EC0000000000FF005F008C004C01BD009B006F
:1006FC00AF004669626F6E61636369205365717503
:10070C00656E63653A000D0A0046280029203D20DD
:02071C000000DB
:00000001FF
